:10000000803117289E1708007E1480314E01161A81
:100010000C1E0E288D316325803115280B1B9A1D6F
:100020001528901D15288C3194247E1009008031EC
:100030001928213084008D308500BD3086000030C5
:1000400087000C308C31B4248031833084008730B9
:100050008500203086000130870040308C31B42488
:100060008031FC01203084000030850033308C3139
:10007000AE248031A0308400003085001D308C31EA
:10008000AE247E104001803145287C184A288431F6
:10009000512480318B177C1E51288531A725803152
:1000A0005628FC1D56288431CF24803140016F082A
:1000B000EC0000308F31052780314001EF005930CE
:1000C0006F06031D692800308F31052780314001FC
:1000D000EF006F088D31812580316F086C060319A0
:1000E0004B2806308D314725803130306F06031D97
:1000F000B228B001B201B5012930ED000130400154
:10010000ED026D0A0319AE280830CB000130CB0296
:100110004B0A0319A1280130EB004B08303E860042
:1001200087016B0881074B08303E860087010A3043
:100130000106031D86284B08303E86008701810199
:1001400086288F31C827803115304001EB00C6303A
:10015000890BA828EB0BA82800007E288531A7254D
:100160008031122959306F06031D12298D319F25C8
:1001700080310830EE0001304001EE026E0A0319B2
:10018000E428CB0108304B020318D5284B08303E39
:10019000860087014B08313E8400850100088100FC
:1001A0000130EB006B08CB07C2280A30B7008F3153
:1001B000C827803134304001EB00F130890BDE2854
:1001C000EB0BDE280032BB280830EE000130EE02D7
:1001D0006E0A031912296E08203E86008701010865
:1001E000B7008F31C827803134304001EB00F13047
:1001F000890BF828EB0BF82800324001CB010830BE
:100200004B020318E6284B08303E860087014B0856
:10021000313E84008501000881000130EB006B084D
:10022000CB07FF2801308F31052780318D318125A3
:10023000803103308D314725803102308F310527E1
:1002400080314001C70047088D3181258031470842
:100250004906031D2F298C31A824803136294708EF
:100260004806031D36298E31E126803100308D315C
:10027000472580315003031D4A2913304702031CD0
:1002800045290130B0020230B1023008031D4A296D
:100290000A30B0005230B2005230B500371C542939
:1002A0004C30B2004C30B5003A083B0403197C29AD
:1002B0000130BA020030BB3B3A083B04031D7C29E5
:1002C00000308F3105278031013A031D602940013C
:1002D0004A03031D6D29E0016F290230E000003060
:1002E0008D31B12580317D308D313A2580317708CF
:1002F0004001BB007608BA003308340436043704E2
:10030000031D88298D319F25803185313C25803121
:100310008F31C827803115304001EB00C630890B82
:100320008F29EB0B8F2900004B288B138D31722501
:100330008131B401B40A4C30B500B6010530B700C4
:100340008F31C82781318E18A32915304001E8006C
:10035000C630890BA929E80BA92900008D31722527
:100360008131B001B101B10AE1010230E200233074
:100370008331CD23813101304001E8006808B107A5
:10038000E101E201E20A59308331CD2381310130AC
:100390004001E8006808B107E0017A30E100503020
:1003A000E200013083313C23813101304001E8001B
:1003B0006808B107E101E10A0430E200313083311D
:1003C000CD23813101304001E8006808B107E10127
:1003D000E10A0530E20012308331CD238131013052
:1003E0004001E8006808B107E1010530E2009930FA
:1003F0008331CD23813101304001E8006808B10725
:10040000E0017F30E1005230E200013083313C23D3
:10041000813101304001E8006808B107E101143082
:10042000E20023308331CD23813140014908F100BE
:1004300079308E318526813101304001E80068082D
:10044000B107E1011530E20023308331CD23813142
:1004500040014808F10078308E3185268131013025
:100460004001E8006808B007B1015230B2004A0804
:10047000031D3C2A0A30B200FC14B301B401B501DB
:10048000B601B7010330863103268131FC105230AA
:100490003206031D4E2ACA01CA0A4F2ACA01BA01EE
:1004A000BB010330CB00582A0130E8006808CB07B5
:1004B00008304B020318832A4B08303E8600870120
:1004C0000108E800E9013B08F2003A08F1000A30AF
:1004D000F3000030F4008E314E2681316808710738
:1004E000BA006908723DBB0006304B06031D542A52
:1004F00019303B029B3003193A02031C542AFF3087
:10050000BA00FF30BB004A08F1007C308E318526EE
:10051000813140013A08F1007D308E3185268131EC
:1005200040013B08F1007F308E318526813101305A
:100530004001E8006808B107E001E00A7B30E10013
:100540005130E2000A3083313C230800FF308E3105
:10055000C1268231E4007C13B00104306402031828
:10056000B52AB001B00A7C17BF2A10306402031804
:10057000BF2A04306402031CBF2AB001B00A07304E
:100580008E31C1268231203E86000130870001086D
:10059000A8000730CB0003304B02031CE02A4B08B5
:1005A000283E860087013F308E31C1268231203EB1
:1005B000840001308500000881000130CB02CB2A85
:1005C000FC12400128080319F22A0130A802FC1687
:1005D0000130E3006308B0070A303002031CF82A38
:1005E000B001F82A280803197C1FF82A0A30B00045
:1005F0000730CB0003304B02031C272B4B08283E4F
:100600008600870101080319212B4B08283E86002C
:10061000870101308102FC160130E3004B08303EB7
:1006200086008701630881074B08303E86008701FA
:100630000A300102031C212B4B08303E8600870143
:1006400081010130CB0203304B020318FE2AFC1E4D
:100650002D2B8F31C82782312F2BFC1E392B1530C3
:100660004001E300C630890B332BE30B332B000032
:10067000E02A8631B0260800E7006208860087017C
:100680000108C600400161087A3A031D532BB601E8
:10069000B60A0230B7005008031D5B2B0230B600CB
:1006A0000430B7005B2B62088D3190258331063012
:1006B0008D31472583318F31C82783318F31922780
:1006C0008331C700033047060319BD2B4703031DC1
:1006D0007C2B0130E30062088600870163088107F4
:1006E000620886008701010867020318982B6208D8
:1006F000860087016008912B620886008701010847
:10070000E300E4016408E60060086302E500031CFE
:10071000E60365086604031D932B620886008701C3
:1007200067088100982B62088600870101308102EA
:1007300061087B3A031D422B6430F7000030F8005B
:100740005108E300E4016308F1006408F200463058
:10075000F3001430F4008E314E2683317208FA0013
:100760007108F90086315F2683317808D800770850
:10077000D7008E3105268331422B6208860087011F
:10078000010846060319080062088600870101086F
:10079000F10061088E3185260800F90014306206E8
:1007A000031DD42B4908DE2B15306206031DDA2BFE
:1007B0004808DE2B62088F3105278331FA007A085A
:1007C0004001C6007A088D318125833106308D3194
:1007D000472583318F31C82783311530F500C63066
:1007E000890BF02BF50BF02B00328F3192278331E0
:1007F000C700033047060319302C4703031D152C8F
:100800000130F5007508FA070F307A05F5000A3057
:100810007506031D0F2C7A08F0390A3EFA007A0893
:1008200079020318E22B61082B2C7A08F500F601F7
:100830007608F80061087502F700031CF8037708D2
:100840007804031D252C79082B2C7A080F39031DF9
:100850002D2C7A08FF3EFA00E22B0130FA02E22B3F
:100860007A0846060319080014306206031D3B2C63
:100870007A08C900080015306206031D422C7A0868
:10088000C80008007A08E00062088D31B125833184
:1008900040016203031D0800E00100308D31B125E5
:1008A00008008E311D2684318031022084310B17DF
:1008B0007C308C31E82484314001CA007D308D3198
:1008C0003A25843177084001BB007608BA007F30B2
:1008D0008C31E82484314001D2007B308C31E82413
:1008E00084314001D1007A308C31E82484314001D8
:1008F000D00079308C31E82484314001C90078304F
:100900008C31E82484314001C8000E308F31052736
:1009100084314001E10003306105033A031DC52C19
:10092000E0010E308D31B12584314001E001E00A53
:100930000F308D31B125843130304001E00001307D
:100940008D31B125843112304001E00002308D310B
:10095000B125843128304001E00004308D31B125CB
:10096000843107304001E00005308D31B1258431FC
:1009700010304001E00006308D31B1258431400156
:10098000E0010F308D31B12584318D3172258431F4
:100990008F31C82784318E31E1267C1408008B13F7
:1009A000FC1177308D31D92584318F31C8278431BE
:1009B0000730E600DE2C8231A62284318F31922767
:1009C0008431C70047030319DB2C02304706031D9F
:1009D00008007F3066060319DE2C66088D31D925A4
:1009E00084318D319F25843185313C258431083017
:1009F0004001E5006508E6078F3192278431C70082
:100A000047030319E92C02304706031908008D310A
:100A1000722584315230B100003086310326843192
:100A20000930CB0001304001CB024B0A0319262DBF
:100A30001030E50065089A0625304001E5005B307E
:100A4000890B202DE50B202D0032122D8D319F2595
:100A500084318F3192278431C7004703031D08007A
:100A60007C1D362D85313C258431392D8231A622DD
:100A700084310430FC06292D0830CB000130CB0234
:100A80004B0A0319522D4B08283E860087013F3040
:100A90008E31C1268531203E84000130850000085A
:100AA00081003E2DA901FC1208304001CB0001302D
:100AB000CB024B0A0319922D4B08283E8600870172
:100AC00001080319572D4B08283E86008701013085
:100AD00081024B08283E860087010108031D7B2DFB
:100AE0004B08303E860087014B08203E840085017C
:100AF00000088100572DFC160130E3004B08303E02
:100B000086008701630881074B08303E8600870115
:100B10000A300106031D572D4B08303E8600870121
:100B20008101572DFC1E982D8F31C82785319A2DB4
:100B3000FC1EA42D15304001E300C630890B9E2D0C
:100B4000E30B9E2D0000532D8631B02608007C1249
:100B50008B1304308F31052785318D318125853107
:100B600003308D314725853105308F31052785319B
:100B70008D318125853100308D3147258531063015
:100B80008F31052785318D318125853106308D31B5
:100B9000472585310A30B2000A30B5005203031DE3
:100BA000DD2D3008C7003108CB003308B000340811
:100BB000B1004708B3004B08B4008E18DD2D8F310B
:100BC000C827853115304001EA00C630890BE62D73
:100BD000EA0BE62D000079304001CB0001304001E6
:100BE000CB024B0A031908008E1CF92D8131952187
:100BF000853115304001EA00C630890BFD2DEA0B26
:100C0000FD2D0000EE2DF500FC180B2E192E523094
:100C10000A2E0A30B2008F31C82786318F319227D1
:100C20008631C70047030319072E02304706031910
:100C3000092E7508CB0008304B02031808004B033F
:100C400003195A2E4C2E0130F4004B08303E86001A
:100C50008701740881074B08303E860087010B30FE
:100C60000106031D4C2E4B08303E86008701810192
:100C70004C2E4B08303E86008701013081024B0824
:100C8000303E86008701010A031D4C2E4B08303E82
:100C9000860087010A3081008F31C82786318F3165
:100CA00092278631C70047030319232E02304706D7
:100CB0000319392E0130F4007408CB071B2ED40120
:100CC000F81F692EF709F809F70A0319F80AD40181
:100CD000D40AFA1F742EF909FA09F90A0319FA0A53
:100CE0000130FB007B08D406D501D60177087804D3
:100CF0000319A32ED301D30AF81B882E0130F73530
:100D0000F80D890B7F2E0130FB007B08D3077C2E6A
:100D10000130D535D60D890B892E78087A02031D4E
:100D2000932E77087902031C9A2E7708F902780827
:100D3000FA3B55140130F836F70C890B9B2E013025
:100D4000D302031D882E54080319AB2ED509D609EA
:100D5000D50A0319D60A5608F8005508F700080006
:100D60000730D7000230D8008E3105268631883012
:100D70004001DB000F30890BBB2EDB0BBB2E9F30FD
:100D80004001D7000130D8008E310526863122304F
:100D90004001DB00C330890BCB2EDB0BCB2E6B303D
:100DA0004001D7000130D8008E31052686311C3035
:100DB0004001DB004430890BDB2EDB0BDB2E000017
:100DC00037304001D7000130D8008E3105268631FA
:100DD00015304001DB00C630890BEC2EDB0BEC2E0E
:100DE0000000CF304001D7000030D8008E310526FA
:100DF00008007E019E014001930119170D1B252F4C
:100E00007E019C014030400193000930F100013027
:100E1000F102710A03191D2F19120032003200323B
:100E2000400119160032003200324001191200321E
:100E30000032003240010D1F072F9301990119164E
:100E400000320032003240011917503093009901EE
:100E50000C307D01C50014307E019E000D30A400D1
:100E600013309C000E307D01C60043018F01083015
:100E70009000910109308D0090120800FB01E01FE5
:100E8000482FDF09E009DF0A0319E00AFB01FB0A2A
:100E9000DE1F4F2FDD09DE09DD0A0319DE0A5D08BA
:100EA0005E040319762FFA01FA0ADE1B612F013066
:100EB000DD35DE0D890B582F0130F9007908FA076E
:100EC000552F5E086002031D672F5D085F02031C3B
:100ED0006D2F5D08DF025E08E03B0130DE36DD0C81
:100EE000890B6E2F0130FA02031D612F7B08031955
:100EF0007E2FDF09E009DF0A0319E00A6008DE003F
:100F00005F08DD00080014341E34283432343234D3
:100F10003C343C3446340F34193423342D343734C4
:100F20003734373441341234133416341734183408
:100F30001A341B341C341D341F3420342134223421
:100F4000243425342634273429342A342B342C34C1
:100F50002E342F34303431341034333411343434AB
:100F60004434353443341534453436343834383425
:100F700040343934393442343A343A343F343B34EF
:100F80003B343D343E344001980199019A010B30C5
:100F900092005030930003309400FC307E01CE006C
:100FA000A030C3003730B800C401B901CF01BA0185
:100FB000C501D0013730BB00F030C600FF30D10092
:100FC0003F30BC00F030C700FF30D2005510D510C4
:100FD0005410D4105314D3144E0116164001181196
:100FE00018129812991299131A109A101A121A13A9
:100FF0009A119A130800003400340034003400348D
:101000000034003400340034003400340034003440
:101010000034003400340034003400340034003430
:101020000034003400340034003400340034003420
:061030000034003400341E
:10191C0045019417080045019413080090118C316F
:10192C00F22408000130BE070030BF3D08004E0114
:10193C000F1C9D2C0F10080072084001BD0071088F
:10194C00BC00080047018E1340011A129A130800BC
:10195C00640080010131890BAF2C0034FE001200B1
:10196C001E00FE0BB52C0034430111158C319D2447
:10197C0019104301901208005308FF3ECC00FF30B1
:10198C00543DCD00CE01CF010800603051018D00D7
:10199C008F0191010230930092010800F100500177
:1019AC001E1771089A0070309B001E141C0808004A
:1019BC004F0196019701980199019A019B019C0195
:1019CC009D010800F7007708F100F201F20A763069
:1019DC008E31A2267608080040013C083D0403190C
:1019EC0008003D088A003C080A008C3108000D30C4
:1019FC00F000FC30890B002DF00B002D40010E186F
:101A0C00042DFC1508000D30F000FC30890B0C2D5A
:101A1C00F00B0C2D40018E18102D7C160800470180
:101A2C008E0140308D00C0308C0044011F08F3390A
:101A3C0004389F0008004C3401340234033404345D
:101A4C0005340634073408340934003452348D31EB
:101A5C0072258D310630B5000630B6000630B70061
:101A6C008F31C8278D31392DF8007808F1000230FC
:101A7C00F20079308E31A2267A08F7007908F60048
:101A8C000800F1007108303E86008701380881009B
:101A9C007108313E86008701390881000800013049
:101AAC00900020308F00910181308D008C014E010F
:101ABC009010A03045018E0008007E01551C6B2D46
:101ACC008C31FD248D317E015510D51C08008D31D3
:101ADC0009257E01D510080008304001CB000130EB
:101AEC00CB024B0A031908004B08303E86008701D5
:101AFC000A308100752DF20072080F394001B900CF
:101B0C000430F100720CF20CF10B882D72080F39B5
:101B1C00B8000800F2007208B900B8010A303902A6
:101B2C00031C08000130F1007108B8070A30B90233
:101B3C00942D0830CB000130CB024B0A031908005E
:101B4C004B08203E860087014B08303E84008501FF
:101B5C0000088100A12DF30073308E3169268D3180
:101B6C004001600843018C00111FBF2D8D312D25C4
:101B7C008D318C319D248D318C31BA24080050303C
:101B8C004B019F00FE309D000C309C001D08400155
:101B9C00C1004B011C084001C0004E018C1290305A
:101BAC004B019E000800F20008304001CB000130D0
:101BBC004001CB024B0A031908004B08303E86004B
:101BCC00870172088C31D4248D3181000130F202EE
:101BDC00DD2D033045019600203095009701F9303A
:101BEC00930092014E0190119A159830F1000C302F
:101BFC00F2008C31A22440304501940008005808B2
:101C0C00DA005708D900DA36D90CDA36D90C59086B
:101C1C0047018D00400157080339D9000530D935EB
:101C2C00FF3E031D152E593547018C0008008C31E1
:101C3C00DE248E318631F9268E318731C3278E31E1
:101C4C008C31CB248E318D3115258E318D31EF2594
:101C5C008E318D3155258E318D31C52508004B01C6
:101C6C001C08FA001D08FB007A08F300F4017B083D
:101C7C00F500F6017508F600F50173087507F80014
:101C8C007408763DF9007908F2007808F100080034
:101C9C00F501F601711C562E7308F5077408F63D14
:101CAC000130F335F40D890B572E0130F236F10C5F
:101CBC00890B5C2E71087204031D502E7608F200FD
:101CCC007508F1000800F2004E010F1019144301C1
:101CDC00901611148C319D248E31643043018C008C
:101CEC008C319D248E314301111F7E2E8D312D257B
:101CFC00720886008701010843018C000800F2007D
:101D0C0050019E18862E1E1772089A0070309B0088
:101D1C009D0171089C0003108B1B03148B131E1563
:101D2C0055309F00AA309F009E149E189B2E1E11AA
:101D3C00031C08008B170800F5007508F40050010F
:101D4C009E18A52E1E1771089A0070309B0001304A
:101D5C00F202720A031908001E1474088600870127
:101D6C001C0881000130F3007308F4070130F30004
:101D7C0073089A07AD2EE1008E3135268E3172082C
:101D8C004001D4007108D3008C31C2248E3161081B
:101D9C00013EDD00003003180130DE008F315F277B
:101DAC008E315808E0005708DF0087313E275D0868
:101DBC00E200620808006430F7000030F8005108B7
:101DCC00DB00DC015B08F1005C08F2004630F3003C
:101DDC001430F4008E314E268E317208FA007108E0
:101DEC00F90086315F268E317808D8007708D70045
:101DFC008E3105268E1740011A169A170800F3002B
:101E0C0073308E3169268F3111158C319D248F31B1
:101E1C00430111148C319D248F31653043018C00AA
:101E2C008C319D248F314301111F1F2F8D312D2596
:101E3C008F31430191158C319D248F3143010C0856
:101E4C00F400911611168C319D248F318C31BA24EB
:101E5C00740808000030D6000030D5000030D400E3
:101E6C000030D300711C422F7508D3077608D43D7F
:101E7C007708D53D7808D63D0130F535F60DF70DD0
:101E8C00F80D890B432F0130F436F30CF20CF10CE6
:101E9C00890B4A2F7408730472047104031D382FC4
:101EAC005608F4005508F3005408F2005308F100EA
:101EBC0008004F08F4004E08F3004D08F2004C08DF
:101ECC00F1004C30F8009530F7007F30F6002D30E3
:101EDC00F5008F3130278F3101307107CC00003085
:101EEC00723DCD000030733DCE000030743DCF000C
:101EFC004C08D9004D08DA004E08DB004F08DC0016
:101F0C001130DC36DB0CDA0CD90C890B872F5A0814
:101F1C00D8005908D7000800F430F2000130F30063
:101F2C000D304001BE000030BF000E1CBA2F0D302A
:101F3C00F100FC30890BA02FF10BA02F8C318E24DB
:101F4C008F3140010E18A72F8C3191248F31400115
:101F5C003F087302031DB42F3E0872020318B82FFA
:101F6C0002300800013008008E1C9B2F0D30F10050
:101F7C00FC30890BBF2FF10BBF2F40018E18C32FE4
:101F8C0003300800BD3086000030870053308400D9
:101F9C00003085000C30F10016001A00F10BD22F26
:101FAC0040011A13CB0108304B020318FD2FDF013F
:101FBC004B08303E860087015F08533E8400850144
:101FCC0000080106031DED2F9A159A16EF2F9A158E
:101FDC009A129A110130F1007108DF070C305F0280
:101FEC00031CDE2F0130F1007108CB07D92F1A1713
:041FFC001A130800AC
:020000040001F9
:08000000FF3FFF3FFF3FFF3F00
:0A000E00EC3F3D3F9F3FFF3FFF3FE7
:10E0000001005200010003000000040002000600AD
:10E01000000052000500070001000000020004009B
:10E02000000052000500070001000000010005008B
:10E030000000520005000200030002000900090070
:10E040000000520004000500060009000000030063
:10E05000000052000400000009000400020000005B
:10E060000000520003000300070001000800070041
:10E070000000520004000000090004000300010039
:10E08000010052000000040008000500090006001D
:10E090000A00520002000700050003000400090006
:10E0A0000000520004000500060009000100040001
:10E0B00000005200050002000300030000000700FA
:10E0C00000005200050007000100000004000600E7
:10E0D00001005200010003000000020003000800DC
:10E0E00001005200000004000800050009000600BD
:10E0F00016001600010005000100000000000000ED
:00000001FF
