:020000040000FA
:020000004A2A8A
:040002000034003492
:08000800FE000308FF007F0861
:100010008300FE0E7E0E0900820714341E3428343D
:10002000323432343C343C3446340F3419342334C3
:100030002D343734373437344134123413341634D2
:10004000173418341A341B341C341D341F34203434
:1000500021342234243425342634273429342A34D4
:100060002B342C342E342F34303431341034333498
:10007000113434344434353443341534453436344F
:100080003834383440343934393442343A343A34F8
:100090003F343B343B343D343E34A115230807390B
:1000A0004602031CA11121088600A20B5528A30BB0
:1000B0004D281E30A3000800A400A115240807390C
:1000C0004602031CA11121088600A20B6528A40B7F
:1000D0005D280800A400A20B6B28A40B6B28080065
:1000E0000830A400273084000A308000840AA40B62
:1000F00075280800F100E22072080F39A700720E7F
:100100000F39A8000800F030BF054D2005198B28D5
:1001100085199A2883282830A400051D97284D208A
:10012000A40B8D28051992284D20BF1408004D20DE
:100130003F14080085199A284D203F1508004D20CE
:1001400083203F1908003F18B72847087202031997
:10015000B4280F307205031DB2280930F2071030A1
:10016000F202C928F203C9284808F200C928480841
:1001700072020318C628F20A0F3072050A3C031DEA
:10018000C928F030F2051030F207C9284708F200FC
:10019000C9287C200D229F282116211521088600C0
:1001A000211121088600080021122115210886004E
:1001B00021112108860008003F3044074407C40786
:1001C0004408080083122008FC39A000850083162B
:1001D000851405148510D030312174185329710805
:1001E0003121741853290510000085140514851059
:1001F000D1303121741853292121720805100000D3
:100200008510051485148312080083122008FC3918
:10021000A00085008316851405148510D030312187
:100220007418532971083121741853297208312127
:1002300074185329051000008510051485148312C5
:100240000800F2010830F000F20D0510000005145E
:100250008312851C2D29831672148316F00B242912
:100260000800F3000830F000F30CF30D0510000057
:10027000F31B3C2985103D2985140514F00B352905
:10028000051085140000000000000514F00183161D
:10029000F00A03195129831285184729831674100F
:1002A000080074140800831270200630A900A8000A
:1002B000A700A501A6010D22A115A1142108860001
:1002C00060290800AE01F412F4130108C400DC2018
:1002D000FC390319F417F0390319F416DC20073937
:1002E0000C20B600F41AB60AB50134308400DC20C4
:1002F0003F390C20800084032E300402031D77292F
:10030000822108003F12360803198E29B6033F16D2
:10031000AE0A0A302E020318AE0191290A30F41BEE
:10032000AE003430840000080319A12980033F1671
:1003300008308402800A0A30000203188001083065
:10034000840784032E300402031D93293F1EAC2929
:100350000D221E305C208229AE2108000730C60025
:10036000C8305C200630C60032305C200530C60044
:1003700028305C200430C6001E305C200330C600EC
:1003800008000108C40036308400DC203F390C200E
:10039000800084032E300402031DC529B501D1213C
:1003A00008003F123630840000080319F02980034A
:1003B0000008031DE629083084070008C500103036
:1003C00084024508800008308407F0293F16083071
:1003D0008402800A0A300002031880010830840772
:1003E00084032E300402031DD4293F1EFB290D2255
:1003F0001E305C20D1290D22AE2108002730840058
:100400000008C50010308407450880000F308402C2
:100410002F300402031D002A08002508C200260808
:10042000C3002E308400C20D0318182AD420192AC4
:10043000CC200930C100C001C00A400800020319E5
:10044000232AD420242ACC20C10B1C2A00080319FB
:100450002B2AD4202C2ACC20C30D0318312AD420D7
:10046000322ACC208403BF1E3E2AA1162108860012
:10047000A112A1152108860050305C20263004020C
:10048000031D132AA11621088600A112A115210817
:10049000860008008501A00107309F008601A101A8
:1004A000031383162F30850000308600DF30810073
:1004B0007B309B001C141A08F9007C309B001C1434
:1004C0001A08F8007D309B001C141A08F6007E30D4
:1004D0009B001C141A08F5007F309B001C141A089E
:1004E0008312BF01C5004518BF177808CC00A201D0
:1004F0001E30A3002110A111A110A1122111210869
:100500008600F401F101E220F21B952A0F30F10080
:10051000E220F21FB32A7210052172140521000097
:10052000E2207218B32AF2010521F101F20105213E
:10053000F10A3030F2000521F10A1230F2000521F3
:10054000F10AF10A2830F2000521F10A0730F20021
:100550000521F10A1030F2000521F2011430F100FA
:100560000521F10A05210230F100E220CD0014300E
:10057000F100E220CA00F10AE220CB00A501A601A9
:1005800070200D22A115A114210886005C2B0130DA
:10059000AE000A30AD000030AC000430AB000830D3
:1005A000AA000530A9000930A8000630A700A5015F
:1005B000A6012617A115A114210886000D220330DB
:1005C000C600F41383203F18E82ABF18EA2A5C2BE0
:1005D0006221DF2AF7010030AE000A30AD0003309F
:1005E000AC000330AB000730AA000130A90008308E
:1005F000A8000730A7000D2283203F18022BBF1848
:100600005C2B1B2B0830F0003630840083167708F3
:100610009B001C141A0883128000F70A8403F00B55
:10062000062B783077020319F4178221783077028D
:10063000031DFC2ADF2A70202E30F7007708840083
:1006400080010D227708840083203F184E2BBF18AD
:10065000542BF703263077020319342B2D30770201
:100660000319F7031E2B0D220830F0000830A106F5
:10067000210886000A30C5006A20C50B3C2BF00B10
:10068000362BFE2183203F18462B5C2B4030F4068E
:10069000741F4C2B6221422BC121422B800A0B304C
:1006A000000203198001212B00080319592B800334
:1006B000212B0A308000212B7508C60085195E2B7E
:1006C0004D200A30A900AC00BF124D20F101E220FC
:1006D0000F392702031D812B4D200519722B851917
:1006E000782B642BA11C7B2B0519722B4D20C72A5C
:1006F000A11C7B2B112CA1142108860005197E2B2F
:100700005C2B72080F39A700720E0F39A80072080F
:10071000303C0319902B7208593C0319A82BAD2BC0
:100720002830F000A901AC01AE01A501A6012730D7
:100730008400800A0A30000203188001840A2F30E6
:100740000402031D992B0D224D20F00B972B112C29
:100750007020BF160D224D20AD2BF10AE2200F397B
:10076000AA00720E0F39AB00F10AE2200F39AD007A
:10077000720E0F39AE00BF1FDE2B2D082E180A3E59
:10078000AE18143EC0003F130B3C0318CA2B3F1792
:100790000C30C00240080319DA2B0A304002031C57
:1007A000D52BAD000130AE00DE2B4008AD000A3085
:1007B000AE00DE2B0130AE000230AD00A501A60177
:1007C0002430271CE52BA600E62BA5004D0872025D
:1007D00003190E2C7208CD004A02031DF22BA11042
:1007E0002108860072084B02031DF92BA114210871
:1007F000860078080319072CCC0B072CCC00F101DC
:10080000E220721C002C02307918F2010521FE2131
:100810000230B700C1217508C6000E2C0D224D20F4
:10082000642B0430F100E2200F39AA00720E0F3958
:10083000AB00F10AE2200F39AD00720E0F39AE00A5
:10084000F10A7B200A30A900AC00A501A601761CA4
:10085000352C2E08C0002D08C1002B08AE002A0838
:10086000AD004008AB004108AA008519352C0D22C7
:100870004D207830A4008519432C0519402D4D20BA
:10088000A40B3B2C642B702025150130AA000030EE
:10089000A8000530A7000D2285194C2C4D20A5017C
:1008A00070200030AE000130AD0002307A200D2201
:1008B000C7012330C8009F2005210230AD00013060
:1008C0007A200D227208C900C7015930C8009F2044
:1008D000490872020319702C0521F101F20105216A
:1008E0000330AD001230BF1F2430F2007C200D22F7
:1008F00083203F197E2C8030BF06722C0130BF1F31
:10090000030183169A007F309B001C1555309D0013
:10091000AA309D009C1483120430AD0004307A206C
:100920000D220130C7003130C8009F20052105305D
:10093000AD0005307A200D220130C7001230C8000A
:100940009F2005210630AD0006307A200D220030B0
:10095000C7009930C8009F2005210730AD00030172
:10096000A8007608A700F2000D220030C700013071
:10097000C8009F207208F60083169A007D309B0005
:100980001C1555309D00AA309D009C148312083020
:10099000AD0014307A200D22C7012330C8009F20FB
:1009A00005217208CA000930AD0015307A200D22E9
:1009B000C7012330C8009F2005217208CB000130F9
:1009C000AE00AD017808C9007808A700A801A90108
:1009D0000A302702031CEF2CA700A80AE82C0A30D3
:1009E0002802031CF62CA800A90AE82CA501A601E0
:1009F0007918FD2C0830A500A6000D224D2083207B
:100A00003F19212D3F18142D791C0E2D780803193C
:100A10000B2DF803E42CF901F80AE42CF80A031D65
:100A2000E42C7914F803E42C791C1C2DF80A031D1E
:100A3000E42CF803F901E42CF803031DE42C7914E9
:100A4000E42CA501A601490878020319402D780875
:100A5000CC0083169A007C309B001C1555309D00FD
:100A6000AA309D009C149C18332D79089A007B3085
:100A70009B001C1555309D00AA309D009C148312CC
:100A80000519402D4D2070200130AE000130AD0021
:100A90007508A7002708C6000D2283203F195A2D8C
:100AA0003F18562D2708031DA7034A2DA70A073014
:100AB000A7054A2D2708F50083169A007E309B0073
:100AC0001C1555309D00AA309D009C1483125C2B90
:02400E00103F61
:1042000032000000150011003E004500230036007A
:104210004700000011002B003D0018002700370068
:104220003B00000022001800330038002800440042
:1042300032000000320014001E0028001D003D0066
:104240002800000028000F00340020001200400069
:10425000320000003100170035001B00290040002B
:104260002800000028000F003500370016001B0052
:1042700032000000270017001C0039004200250012
:104280003C0000001F00110016003F003700220014
:104290003C000000320023001100190026003F00FE
:1042A0003C000000150025001100220031003F00F5
:1042B0003C0000001E003700120011002C004500D9
:1042C0004700000010001A003100200024003100D7
:1042D0003C000000590079009400B700D100F100C3
:1042E0001D0000003E0021001100260037003F00A5
:1042F00000000000000001000000000005000100B7
:00000001FF
